{
  "contractName": "CrowdFundingWithDeadline",
  "abi": [
    {
      "inputs": [
        {
          "internalType": "string",
          "name": "contractName",
          "type": "string"
        },
        {
          "internalType": "uint256",
          "name": "targetAmountEth",
          "type": "uint256"
        },
        {
          "internalType": "uint256",
          "name": "durationInMin",
          "type": "uint256"
        },
        {
          "internalType": "address",
          "name": "beneficiaryAddress",
          "type": "address"
        }
      ],
      "stateMutability": "nonpayable",
      "type": "constructor"
    },
    {
      "inputs": [
        {
          "internalType": "address",
          "name": "",
          "type": "address"
        }
      ],
      "name": "amounts",
      "outputs": [
        {
          "internalType": "uint256",
          "name": "",
          "type": "uint256"
        }
      ],
      "stateMutability": "view",
      "type": "function"
    },
    {
      "inputs": [],
      "name": "beneficiary",
      "outputs": [
        {
          "internalType": "address",
          "name": "",
          "type": "address"
        }
      ],
      "stateMutability": "view",
      "type": "function"
    },
    {
      "inputs": [],
      "name": "collected",
      "outputs": [
        {
          "internalType": "bool",
          "name": "",
          "type": "bool"
        }
      ],
      "stateMutability": "view",
      "type": "function"
    },
    {
      "inputs": [],
      "name": "fundingDeadline",
      "outputs": [
        {
          "internalType": "uint256",
          "name": "",
          "type": "uint256"
        }
      ],
      "stateMutability": "view",
      "type": "function"
    },
    {
      "inputs": [],
      "name": "name",
      "outputs": [
        {
          "internalType": "string",
          "name": "",
          "type": "string"
        }
      ],
      "stateMutability": "view",
      "type": "function"
    },
    {
      "inputs": [],
      "name": "state",
      "outputs": [
        {
          "internalType": "enum CrowdFundingWithDeadline.State",
          "name": "",
          "type": "uint8"
        }
      ],
      "stateMutability": "view",
      "type": "function"
    },
    {
      "inputs": [],
      "name": "targetAmount",
      "outputs": [
        {
          "internalType": "uint256",
          "name": "",
          "type": "uint256"
        }
      ],
      "stateMutability": "view",
      "type": "function"
    },
    {
      "inputs": [],
      "name": "totalCollected",
      "outputs": [
        {
          "internalType": "uint256",
          "name": "",
          "type": "uint256"
        }
      ],
      "stateMutability": "view",
      "type": "function"
    },
    {
      "inputs": [],
      "name": "contribute",
      "outputs": [],
      "stateMutability": "payable",
      "type": "function"
    },
    {
      "inputs": [],
      "name": "finishCrowdFunding",
      "outputs": [],
      "stateMutability": "nonpayable",
      "type": "function"
    }
  ],
  "bytecode": "0x60806040523480156200001157600080fd5b50604051620011133803806200111383398181016040528101906200003791906200040b565b83600090805190602001906200004f9291906200011e565b50670de0b6b3a764000083620000669190620004cb565b600181905550603c826200007b9190620004cb565b6200008b6200011660201b60201c565b6200009791906200052c565b60028190555080600360006101000a81548173ffffffffffffffffffffffffffffffffffffffff021916908373ffffffffffffffffffffffffffffffffffffffff1602179055506000600360146101000a81548160ff0219169083600381111562000107576200010662000589565b5b0217905550505050506200061d565b600042905090565b8280546200012c90620005e7565b90600052602060002090601f0160209004810192826200015057600085556200019c565b82601f106200016b57805160ff19168380011785556200019c565b828001600101855582156200019c579182015b828111156200019b5782518255916020019190600101906200017e565b5b509050620001ab9190620001af565b5090565b5b80821115620001ca576000816000905550600101620001b0565b5090565b6000604051905090565b600080fd5b600080fd5b600080fd5b600080fd5b6000601f19601f8301169050919050565b7f4e487b7100000000000000000000000000000000000000000000000000000000600052604160045260246000fd5b6200023782620001ec565b810181811067ffffffffffffffff82111715620002595762000258620001fd565b5b80604052505050565b60006200026e620001ce565b90506200027c82826200022c565b919050565b600067ffffffffffffffff8211156200029f576200029e620001fd565b5b620002aa82620001ec565b9050602081019050919050565b60005b83811015620002d7578082015181840152602081019050620002ba565b83811115620002e7576000848401525b50505050565b600062000304620002fe8462000281565b62000262565b905082815260208101848484011115620003235762000322620001e7565b5b62000330848285620002b7565b509392505050565b600082601f83011262000350576200034f620001e2565b5b815162000362848260208601620002ed565b91505092915050565b6000819050919050565b62000380816200036b565b81146200038c57600080fd5b50565b600081519050620003a08162000375565b92915050565b600073ffffffffffffffffffffffffffffffffffffffff82169050919050565b6000620003d382620003a6565b9050919050565b620003e581620003c6565b8114620003f157600080fd5b50565b6000815190506200040581620003da565b92915050565b60008060008060808587031215620004285762000427620001d8565b5b600085015167ffffffffffffffff811115620004495762000448620001dd565b5b620004578782880162000338565b94505060206200046a878288016200038f565b93505060406200047d878288016200038f565b92505060606200049087828801620003f4565b91505092959194509250565b7f4e487b7100000000000000000000000000000000000000000000000000000000600052601160045260246000fd5b6000620004d8826200036b565b9150620004e5836200036b565b9250817fffffffffffffffffffffffffffffffffffffffffffffffffffffffffffffffff04831182151516156200052157620005206200049c565b5b828202905092915050565b600062000539826200036b565b915062000546836200036b565b9250827fffffffffffffffffffffffffffffffffffffffffffffffffffffffffffffffff038211156200057e576200057d6200049c565b5b828201905092915050565b7f4e487b7100000000000000000000000000000000000000000000000000000000600052602160045260246000fd5b7f4e487b7100000000000000000000000000000000000000000000000000000000600052602260045260246000fd5b600060028204905060018216806200060057607f821691505b60208210811415620006175762000616620005b8565b5b50919050565b610ae6806200062d6000396000f3fe6080604052600436106100915760003560e01c806384bcefd41161005957806384bcefd41461016b578063953b8fb814610196578063c19d93fb146101c1578063d7bb99ba146101ec578063e29eb836146101f657610091565b806306fdde0314610096578063083dca11146100c157806338af3eed146100d857806355a3b2c114610103578063796b23bb14610140575b600080fd5b3480156100a257600080fd5b506100ab610221565b6040516100b89190610662565b60405180910390f35b3480156100cd57600080fd5b506100d66102af565b005b3480156100e457600080fd5b506100ed6103e1565b6040516100fa91906106c5565b60405180910390f35b34801561010f57600080fd5b5061012a60048036038101906101259190610711565b610407565b6040516101379190610757565b60405180910390f35b34801561014c57600080fd5b5061015561041f565b6040516101629190610757565b60405180910390f35b34801561017757600080fd5b50610180610425565b60405161018d919061078d565b60405180910390f35b3480156101a257600080fd5b506101ab610438565b6040516101b89190610757565b60405180910390f35b3480156101cd57600080fd5b506101d661043e565b6040516101e3919061081f565b60405180910390f35b6101f4610451565b005b34801561020257600080fd5b5061020b6105a8565b6040516102189190610757565b60405180910390f35b6000805461022e90610869565b80601f016020809104026020016040519081016040528092919081815260200182805461025a90610869565b80156102a75780601f1061027c576101008083540402835291602001916102a7565b820191906000526020600020905b81548152906001019060200180831161028a57829003601f168201915b505050505081565b60008060038111156102c4576102c36107a8565b5b600360149054906101000a900460ff1660038111156102e6576102e56107a8565b5b14610326576040517f08c379a000000000000000000000000000000000000000000000000000000000815260040161031d906108e7565b60405180910390fd5b61032e6105ae565b1561036e576040517f08c379a000000000000000000000000000000000000000000000000000000000815260040161036590610979565b60405180910390fd5b600560009054906101000a900460ff166103b2576001600360146101000a81548160ff021916908360038111156103a8576103a76107a8565b5b02179055506103de565b6002600360146101000a81548160ff021916908360038111156103d8576103d76107a8565b5b02179055505b50565b600360009054906101000a900473ffffffffffffffffffffffffffffffffffffffff1681565b60046020528060005260406000206000915090505481565b60025481565b600560009054906101000a900460ff1681565b60015481565b600360149054906101000a900460ff1681565b6000806003811115610466576104656107a8565b5b600360149054906101000a900460ff166003811115610488576104876107a8565b5b146104c8576040517f08c379a00000000000000000000000000000000000000000000000000000000081526004016104bf906108e7565b60405180910390fd5b6104d06105ae565b61050f576040517f08c379a000000000000000000000000000000000000000000000000000000000815260040161050690610a0b565b60405180910390fd5b34600460003373ffffffffffffffffffffffffffffffffffffffff1673ffffffffffffffffffffffffffffffffffffffff168152602001908152602001600020600082825461055e9190610a5a565b9250508190555034600660008282546105779190610a5a565b92505081905550600154600654106105a5576001600560006101000a81548160ff0219169083151502179055505b50565b60065481565b60006002546105bb6105c1565b10905090565b600042905090565b600081519050919050565b600082825260208201905092915050565b60005b838110156106035780820151818401526020810190506105e8565b83811115610612576000848401525b50505050565b6000601f19601f8301169050919050565b6000610634826105c9565b61063e81856105d4565b935061064e8185602086016105e5565b61065781610618565b840191505092915050565b6000602082019050818103600083015261067c8184610629565b905092915050565b600073ffffffffffffffffffffffffffffffffffffffff82169050919050565b60006106af82610684565b9050919050565b6106bf816106a4565b82525050565b60006020820190506106da60008301846106b6565b92915050565b600080fd5b6106ee816106a4565b81146106f957600080fd5b50565b60008135905061070b816106e5565b92915050565b600060208284031215610727576107266106e0565b5b6000610735848285016106fc565b91505092915050565b6000819050919050565b6107518161073e565b82525050565b600060208201905061076c6000830184610748565b92915050565b60008115159050919050565b61078781610772565b82525050565b60006020820190506107a2600083018461077e565b92915050565b7f4e487b7100000000000000000000000000000000000000000000000000000000600052602160045260246000fd5b600481106107e8576107e76107a8565b5b50565b60008190506107f9826107d7565b919050565b6000610809826107eb565b9050919050565b610819816107fe565b82525050565b60006020820190506108346000830184610810565b92915050565b7f4e487b7100000000000000000000000000000000000000000000000000000000600052602260045260246000fd5b6000600282049050600182168061088157607f821691505b602082108114156108955761089461083a565b5b50919050565b7f496e76616c696420737461746500000000000000000000000000000000000000600082015250565b60006108d1600d836105d4565b91506108dc8261089b565b602082019050919050565b60006020820190508181036000830152610900816108c4565b9050919050565b7f43616e6e6f742066696e6973682063616d706169676e206265666f726520612060008201527f646561646c696e65000000000000000000000000000000000000000000000000602082015250565b60006109636028836105d4565b915061096e82610907565b604082019050919050565b6000602082019050818103600083015261099281610956565b9050919050565b7f4e6f20636f6e747269627574696f6e732061667465722074686520646561646c60008201527f696e650000000000000000000000000000000000000000000000000000000000602082015250565b60006109f56023836105d4565b9150610a0082610999565b604082019050919050565b60006020820190508181036000830152610a24816109e8565b9050919050565b7f4e487b7100000000000000000000000000000000000000000000000000000000600052601160045260246000fd5b6000610a658261073e565b9150610a708361073e565b9250827fffffffffffffffffffffffffffffffffffffffffffffffffffffffffffffffff03821115610aa557610aa4610a2b565b5b82820190509291505056fea2646970667358221220be893140e3363778f16861de841b0252ca5ec958c4401ef9c7f4a851155e655864736f6c63430008090033",
  "immutableReferences": {},
  "source": "pragma solidity 0.8.9;\n\ncontract CrowdFundingWithDeadline {\n    enum State { Ongoing, Failed, Succeeded, PayedOut }\n\n    string public name; //campaign name\n    uint public targetAmount;\n    uint public fundingDeadline; // in sec from 1.1.1970\n    address public beneficiary;\n    State public state;\n\n    mapping(address=>uint) public amounts; //dictionary address, amount -> we will use this if campaign fails and we need to return funds\n    bool public collected; //if collected campaign is successful\n    uint public totalCollected; //total amount collected\n\n    modifier inState(State expectedState){\n        require(state == expectedState, \"Invalid state\");\n        _;\n    }\n\n    constructor(\n        string memory contractName,\n        uint targetAmountEth,\n        uint durationInMin,\n        address beneficiaryAddress\n    ){\n        name = contractName;\n        targetAmount = targetAmountEth * 1 ether; \n        fundingDeadline = currentTime() + durationInMin * 1 minutes;\n        beneficiary = beneficiaryAddress;\n        state = State.Ongoing;\n    }\n\n    function contribute() public payable inState(State.Ongoing){\n        require(beforeDeadline(), \"No contributions after the deadline\");\n        amounts[msg.sender] += msg.value;\n        totalCollected += msg.value;\n\n        if (totalCollected >= targetAmount)\n            collected = true;    \n\n    }\n\n    function beforeDeadline() private view returns(bool) {\n        return currentTime() < fundingDeadline;\n    }\n\n    function currentTime() internal virtual view returns(uint){\n        return block.timestamp;\n    }\n\n    function finishCrowdFunding() public inState(State.Ongoing){\n        require(!beforeDeadline(), \"Cannot finish campaign before a deadline\");\n\n        if (!collected)\n            state = State.Failed;\n        else\n            state = State.Succeeded;\n    }\n\n} ",
  "sourcePath": "/home/vmuser/sandbox/CrowdFunding/contracts/CrowdFundingWithDeadline.sol",
  "compiler": {
    "name": "solc",
    "version": "0.8.9+commit.e5eed63a.Emscripten.clang"
  },
  "schemaVersion": "3.4.3",
  "updatedAt": "2021-10-19T21:41:11.390Z",
  "devdoc": {
    "kind": "dev",
    "methods": {},
    "version": 1
  },
  "userdoc": {
    "kind": "user",
    "methods": {},
    "version": 1
  }
}