{
  "contractName": "CrowdFundingWithDeadline",
  "abi": [
    {
      "inputs": [
        {
          "internalType": "string",
          "name": "contractName",
          "type": "string"
        },
        {
          "internalType": "uint256",
          "name": "targetAmountEth",
          "type": "uint256"
        },
        {
          "internalType": "uint256",
          "name": "durationInMin",
          "type": "uint256"
        },
        {
          "internalType": "address",
          "name": "beneficiaryAddress",
          "type": "address"
        }
      ],
      "stateMutability": "nonpayable",
      "type": "constructor"
    },
    {
      "anonymous": false,
      "inputs": [
        {
          "indexed": false,
          "internalType": "address",
          "name": "adr",
          "type": "address"
        },
        {
          "indexed": false,
          "internalType": "uint256",
          "name": "totalCollected",
          "type": "uint256"
        },
        {
          "indexed": false,
          "internalType": "bool",
          "name": "succeeded",
          "type": "bool"
        }
      ],
      "name": "CampaignFinished",
      "type": "event"
    },
    {
      "inputs": [
        {
          "internalType": "address",
          "name": "",
          "type": "address"
        }
      ],
      "name": "amounts",
      "outputs": [
        {
          "internalType": "uint256",
          "name": "",
          "type": "uint256"
        }
      ],
      "stateMutability": "view",
      "type": "function",
      "constant": true
    },
    {
      "inputs": [],
      "name": "beneficiary",
      "outputs": [
        {
          "internalType": "address",
          "name": "",
          "type": "address"
        }
      ],
      "stateMutability": "view",
      "type": "function",
      "constant": true
    },
    {
      "inputs": [],
      "name": "collected",
      "outputs": [
        {
          "internalType": "bool",
          "name": "",
          "type": "bool"
        }
      ],
      "stateMutability": "view",
      "type": "function",
      "constant": true
    },
    {
      "inputs": [],
      "name": "fundingDeadline",
      "outputs": [
        {
          "internalType": "uint256",
          "name": "",
          "type": "uint256"
        }
      ],
      "stateMutability": "view",
      "type": "function",
      "constant": true
    },
    {
      "inputs": [],
      "name": "name",
      "outputs": [
        {
          "internalType": "string",
          "name": "",
          "type": "string"
        }
      ],
      "stateMutability": "view",
      "type": "function",
      "constant": true
    },
    {
      "inputs": [],
      "name": "state",
      "outputs": [
        {
          "internalType": "enum CrowdFundingWithDeadline.State",
          "name": "",
          "type": "uint8"
        }
      ],
      "stateMutability": "view",
      "type": "function",
      "constant": true
    },
    {
      "inputs": [],
      "name": "targetAmount",
      "outputs": [
        {
          "internalType": "uint256",
          "name": "",
          "type": "uint256"
        }
      ],
      "stateMutability": "view",
      "type": "function",
      "constant": true
    },
    {
      "inputs": [],
      "name": "totalCollected",
      "outputs": [
        {
          "internalType": "uint256",
          "name": "",
          "type": "uint256"
        }
      ],
      "stateMutability": "view",
      "type": "function",
      "constant": true
    },
    {
      "inputs": [],
      "name": "contribute",
      "outputs": [],
      "stateMutability": "payable",
      "type": "function",
      "payable": true
    },
    {
      "inputs": [],
      "name": "finishCrowdFunding",
      "outputs": [],
      "stateMutability": "nonpayable",
      "type": "function"
    },
    {
      "inputs": [],
      "name": "collect",
      "outputs": [],
      "stateMutability": "nonpayable",
      "type": "function"
    },
    {
      "inputs": [],
      "name": "withdraw",
      "outputs": [],
      "stateMutability": "nonpayable",
      "type": "function"
    }
  ],
  "bytecode": "0x60806040523480156200001157600080fd5b506040516200172938038062001729833981810160405281019062000037919062000500565b83600090805190602001906200004f92919062000213565b5073__Utils_________________________________6388439bbc846040518263ffffffff1660e01b8152600401620000899190620005a2565b60206040518083038186803b158015620000a257600080fd5b505af4158015620000b7573d6000803e3d6000fd5b505050506040513d601f19601f82011682018060405250810190620000dd9190620005bf565b60018190555073__Utils_________________________________63529b380f836040518263ffffffff1660e01b81526004016200011c9190620005a2565b60206040518083038186803b1580156200013557600080fd5b505af41580156200014a573d6000803e3d6000fd5b505050506040513d601f19601f82011682018060405250810190620001709190620005bf565b620001806200020b60201b60201c565b6200018c919062000620565b60028190555080600360006101000a81548173ffffffffffffffffffffffffffffffffffffffff021916908373ffffffffffffffffffffffffffffffffffffffff1602179055506000600360146101000a81548160ff02191690836003811115620001fc57620001fb6200067d565b5b02179055505050505062000711565b600042905090565b8280546200022190620006db565b90600052602060002090601f01602090048101928262000245576000855562000291565b82601f106200026057805160ff191683800117855562000291565b8280016001018555821562000291579182015b828111156200029057825182559160200191906001019062000273565b5b509050620002a09190620002a4565b5090565b5b80821115620002bf576000816000905550600101620002a5565b5090565b6000604051905090565b600080fd5b600080fd5b600080fd5b600080fd5b6000601f19601f8301169050919050565b7f4e487b7100000000000000000000000000000000000000000000000000000000600052604160045260246000fd5b6200032c82620002e1565b810181811067ffffffffffffffff821117156200034e576200034d620002f2565b5b80604052505050565b600062000363620002c3565b905062000371828262000321565b919050565b600067ffffffffffffffff821115620003945762000393620002f2565b5b6200039f82620002e1565b9050602081019050919050565b60005b83811015620003cc578082015181840152602081019050620003af565b83811115620003dc576000848401525b50505050565b6000620003f9620003f38462000376565b62000357565b905082815260208101848484011115620004185762000417620002dc565b5b62000425848285620003ac565b509392505050565b600082601f830112620004455762000444620002d7565b5b815162000457848260208601620003e2565b91505092915050565b6000819050919050565b620004758162000460565b81146200048157600080fd5b50565b60008151905062000495816200046a565b92915050565b600073ffffffffffffffffffffffffffffffffffffffff82169050919050565b6000620004c8826200049b565b9050919050565b620004da81620004bb565b8114620004e657600080fd5b50565b600081519050620004fa81620004cf565b92915050565b600080600080608085870312156200051d576200051c620002cd565b5b600085015167ffffffffffffffff8111156200053e576200053d620002d2565b5b6200054c878288016200042d565b94505060206200055f8782880162000484565b9350506040620005728782880162000484565b92505060606200058587828801620004e9565b91505092959194509250565b6200059c8162000460565b82525050565b6000602082019050620005b9600083018462000591565b92915050565b600060208284031215620005d857620005d7620002cd565b5b6000620005e88482850162000484565b91505092915050565b7f4e487b7100000000000000000000000000000000000000000000000000000000600052601160045260246000fd5b60006200062d8262000460565b91506200063a8362000460565b9250827fffffffffffffffffffffffffffffffffffffffffffffffffffffffffffffffff03821115620006725762000671620005f1565b5b828201905092915050565b7f4e487b7100000000000000000000000000000000000000000000000000000000600052602160045260246000fd5b7f4e487b7100000000000000000000000000000000000000000000000000000000600052602260045260246000fd5b60006002820490506001821680620006f457607f821691505b602082108114156200070b576200070a620006ac565b5b50919050565b61100880620007216000396000f3fe6080604052600436106100a75760003560e01c806384bcefd41161006457806384bcefd414610198578063953b8fb8146101c3578063c19d93fb146101ee578063d7bb99ba14610219578063e29eb83614610223578063e52253811461024e576100a7565b806306fdde03146100ac578063083dca11146100d757806338af3eed146100ee5780633ccfd60b1461011957806355a3b2c114610130578063796b23bb1461016d575b600080fd5b3480156100b857600080fd5b506100c1610265565b6040516100ce9190610a9b565b60405180910390f35b3480156100e357600080fd5b506100ec6102f3565b005b3480156100fa57600080fd5b50610103610471565b6040516101109190610afe565b60405180910390f35b34801561012557600080fd5b5061012e610497565b005b34801561013c57600080fd5b5061015760048036038101906101529190610b4a565b6106d4565b6040516101649190610b90565b60405180910390f35b34801561017957600080fd5b506101826106ec565b60405161018f9190610b90565b60405180910390f35b3480156101a457600080fd5b506101ad6106f2565b6040516101ba9190610bc6565b60405180910390f35b3480156101cf57600080fd5b506101d8610705565b6040516101e59190610b90565b60405180910390f35b3480156101fa57600080fd5b5061020361070b565b6040516102109190610c58565b60405180910390f35b61022161071e565b005b34801561022f57600080fd5b50610238610875565b6040516102459190610b90565b60405180910390f35b34801561025a57600080fd5b5061026361087b565b005b6000805461027290610ca2565b80601f016020809104026020016040519081016040528092919081815260200182805461029e90610ca2565b80156102eb5780601f106102c0576101008083540402835291602001916102eb565b820191906000526020600020905b8154815290600101906020018083116102ce57829003601f168201915b505050505081565b600080600381111561030857610307610be1565b5b600360149054906101000a900460ff16600381111561032a57610329610be1565b5b1461036a576040517f08c379a000000000000000000000000000000000000000000000000000000000815260040161036190610d20565b60405180910390fd5b6103726109e7565b156103b2576040517f08c379a00000000000000000000000000000000000000000000000000000000081526004016103a990610db2565b60405180910390fd5b600560009054906101000a900460ff166103f6576001600360146101000a81548160ff021916908360038111156103ec576103eb610be1565b5b0217905550610422565b6002600360146101000a81548160ff0219169083600381111561041c5761041b610be1565b5b02179055505b7f6fa7e87ebbd87ed4f1c40bba63144f68fd2bb022fb748ab3b61b5411c39bd47430600654600560009054906101000a900460ff1660405161046693929190610dd2565b60405180910390a150565b600360009054906101000a900473ffffffffffffffffffffffffffffffffffffffff1681565b60018060038111156104ac576104ab610be1565b5b600360149054906101000a900460ff1660038111156104ce576104cd610be1565b5b1461050e576040517f08c379a000000000000000000000000000000000000000000000000000000000815260040161050590610d20565b60405180910390fd5b6000600460003373ffffffffffffffffffffffffffffffffffffffff1673ffffffffffffffffffffffffffffffffffffffff1681526020019081526020016000205411610590576040517f08c379a000000000000000000000000000000000000000000000000000000000815260040161058790610e55565b60405180910390fd5b6000600460003373ffffffffffffffffffffffffffffffffffffffff1673ffffffffffffffffffffffffffffffffffffffff1681526020019081526020016000205490506000600460003373ffffffffffffffffffffffffffffffffffffffff1673ffffffffffffffffffffffffffffffffffffffff1681526020019081526020016000208190555060003373ffffffffffffffffffffffffffffffffffffffff168260405161063f90610ea6565b60006040518083038185875af1925050503d806000811461067c576040519150601f19603f3d011682016040523d82523d6000602084013e610681565b606091505b50509050806106cf5781600460003373ffffffffffffffffffffffffffffffffffffffff1673ffffffffffffffffffffffffffffffffffffffff168152602001908152602001600020819055505b505050565b60046020528060005260406000206000915090505481565b60025481565b600560009054906101000a900460ff1681565b60015481565b600360149054906101000a900460ff1681565b600080600381111561073357610732610be1565b5b600360149054906101000a900460ff16600381111561075557610754610be1565b5b14610795576040517f08c379a000000000000000000000000000000000000000000000000000000000815260040161078c90610d20565b60405180910390fd5b61079d6109e7565b6107dc576040517f08c379a00000000000000000000000000000000000000000000000000000000081526004016107d390610f2d565b60405180910390fd5b34600460003373ffffffffffffffffffffffffffffffffffffffff1673ffffffffffffffffffffffffffffffffffffffff168152602001908152602001600020600082825461082b9190610f7c565b9250508190555034600660008282546108449190610f7c565b9250508190555060015460065410610872576001600560006101000a81548160ff0219169083151502179055505b50565b60065481565b60028060038111156108905761088f610be1565b5b600360149054906101000a900460ff1660038111156108b2576108b1610be1565b5b146108f2576040517f08c379a00000000000000000000000000000000000000000000000000000000081526004016108e990610d20565b60405180910390fd5b6000600360009054906101000a900473ffffffffffffffffffffffffffffffffffffffff1673ffffffffffffffffffffffffffffffffffffffff1660065460405161093c90610ea6565b60006040518083038185875af1925050503d8060008114610979576040519150601f19603f3d011682016040523d82523d6000602084013e61097e565b606091505b5050905080156109b75760038060146101000a81548160ff021916908360038111156109ad576109ac610be1565b5b02179055506109e3565b6001600360146101000a81548160ff021916908360038111156109dd576109dc610be1565b5b02179055505b5050565b60006002546109f46109fa565b10905090565b600042905090565b600081519050919050565b600082825260208201905092915050565b60005b83811015610a3c578082015181840152602081019050610a21565b83811115610a4b576000848401525b50505050565b6000601f19601f8301169050919050565b6000610a6d82610a02565b610a778185610a0d565b9350610a87818560208601610a1e565b610a9081610a51565b840191505092915050565b60006020820190508181036000830152610ab58184610a62565b905092915050565b600073ffffffffffffffffffffffffffffffffffffffff82169050919050565b6000610ae882610abd565b9050919050565b610af881610add565b82525050565b6000602082019050610b136000830184610aef565b92915050565b600080fd5b610b2781610add565b8114610b3257600080fd5b50565b600081359050610b4481610b1e565b92915050565b600060208284031215610b6057610b5f610b19565b5b6000610b6e84828501610b35565b91505092915050565b6000819050919050565b610b8a81610b77565b82525050565b6000602082019050610ba56000830184610b81565b92915050565b60008115159050919050565b610bc081610bab565b82525050565b6000602082019050610bdb6000830184610bb7565b92915050565b7f4e487b7100000000000000000000000000000000000000000000000000000000600052602160045260246000fd5b60048110610c2157610c20610be1565b5b50565b6000819050610c3282610c10565b919050565b6000610c4282610c24565b9050919050565b610c5281610c37565b82525050565b6000602082019050610c6d6000830184610c49565b92915050565b7f4e487b7100000000000000000000000000000000000000000000000000000000600052602260045260246000fd5b60006002820490506001821680610cba57607f821691505b60208210811415610cce57610ccd610c73565b5b50919050565b7f496e76616c696420737461746500000000000000000000000000000000000000600082015250565b6000610d0a600d83610a0d565b9150610d1582610cd4565b602082019050919050565b60006020820190508181036000830152610d3981610cfd565b9050919050565b7f43616e6e6f742066696e6973682063616d706169676e206265666f726520612060008201527f646561646c696e65000000000000000000000000000000000000000000000000602082015250565b6000610d9c602883610a0d565b9150610da782610d40565b604082019050919050565b60006020820190508181036000830152610dcb81610d8f565b9050919050565b6000606082019050610de76000830186610aef565b610df46020830185610b81565b610e016040830184610bb7565b949350505050565b7f4e6f7468696e672077617320636f6e7472696275746564000000000000000000600082015250565b6000610e3f601783610a0d565b9150610e4a82610e09565b602082019050919050565b60006020820190508181036000830152610e6e81610e32565b9050919050565b600081905092915050565b50565b6000610e90600083610e75565b9150610e9b82610e80565b600082019050919050565b6000610eb182610e83565b9150819050919050565b7f4e6f20636f6e747269627574696f6e732061667465722074686520646561646c60008201527f696e650000000000000000000000000000000000000000000000000000000000602082015250565b6000610f17602383610a0d565b9150610f2282610ebb565b604082019050919050565b60006020820190508181036000830152610f4681610f0a565b9050919050565b7f4e487b7100000000000000000000000000000000000000000000000000000000600052601160045260246000fd5b6000610f8782610b77565b9150610f9283610b77565b9250827fffffffffffffffffffffffffffffffffffffffffffffffffffffffffffffffff03821115610fc757610fc6610f4d565b5b82820190509291505056fea2646970667358221220fdde7d38f5af4f5771dc38cf16c72553fe333e044c9000e6de078f2593dc60ef64736f6c63430008090033",
  "deployedBytecode": "0x6080604052600436106100a75760003560e01c806384bcefd41161006457806384bcefd414610198578063953b8fb8146101c3578063c19d93fb146101ee578063d7bb99ba14610219578063e29eb83614610223578063e52253811461024e576100a7565b806306fdde03146100ac578063083dca11146100d757806338af3eed146100ee5780633ccfd60b1461011957806355a3b2c114610130578063796b23bb1461016d575b600080fd5b3480156100b857600080fd5b506100c1610265565b6040516100ce9190610a9b565b60405180910390f35b3480156100e357600080fd5b506100ec6102f3565b005b3480156100fa57600080fd5b50610103610471565b6040516101109190610afe565b60405180910390f35b34801561012557600080fd5b5061012e610497565b005b34801561013c57600080fd5b5061015760048036038101906101529190610b4a565b6106d4565b6040516101649190610b90565b60405180910390f35b34801561017957600080fd5b506101826106ec565b60405161018f9190610b90565b60405180910390f35b3480156101a457600080fd5b506101ad6106f2565b6040516101ba9190610bc6565b60405180910390f35b3480156101cf57600080fd5b506101d8610705565b6040516101e59190610b90565b60405180910390f35b3480156101fa57600080fd5b5061020361070b565b6040516102109190610c58565b60405180910390f35b61022161071e565b005b34801561022f57600080fd5b50610238610875565b6040516102459190610b90565b60405180910390f35b34801561025a57600080fd5b5061026361087b565b005b6000805461027290610ca2565b80601f016020809104026020016040519081016040528092919081815260200182805461029e90610ca2565b80156102eb5780601f106102c0576101008083540402835291602001916102eb565b820191906000526020600020905b8154815290600101906020018083116102ce57829003601f168201915b505050505081565b600080600381111561030857610307610be1565b5b600360149054906101000a900460ff16600381111561032a57610329610be1565b5b1461036a576040517f08c379a000000000000000000000000000000000000000000000000000000000815260040161036190610d20565b60405180910390fd5b6103726109e7565b156103b2576040517f08c379a00000000000000000000000000000000000000000000000000000000081526004016103a990610db2565b60405180910390fd5b600560009054906101000a900460ff166103f6576001600360146101000a81548160ff021916908360038111156103ec576103eb610be1565b5b0217905550610422565b6002600360146101000a81548160ff0219169083600381111561041c5761041b610be1565b5b02179055505b7f6fa7e87ebbd87ed4f1c40bba63144f68fd2bb022fb748ab3b61b5411c39bd47430600654600560009054906101000a900460ff1660405161046693929190610dd2565b60405180910390a150565b600360009054906101000a900473ffffffffffffffffffffffffffffffffffffffff1681565b60018060038111156104ac576104ab610be1565b5b600360149054906101000a900460ff1660038111156104ce576104cd610be1565b5b1461050e576040517f08c379a000000000000000000000000000000000000000000000000000000000815260040161050590610d20565b60405180910390fd5b6000600460003373ffffffffffffffffffffffffffffffffffffffff1673ffffffffffffffffffffffffffffffffffffffff1681526020019081526020016000205411610590576040517f08c379a000000000000000000000000000000000000000000000000000000000815260040161058790610e55565b60405180910390fd5b6000600460003373ffffffffffffffffffffffffffffffffffffffff1673ffffffffffffffffffffffffffffffffffffffff1681526020019081526020016000205490506000600460003373ffffffffffffffffffffffffffffffffffffffff1673ffffffffffffffffffffffffffffffffffffffff1681526020019081526020016000208190555060003373ffffffffffffffffffffffffffffffffffffffff168260405161063f90610ea6565b60006040518083038185875af1925050503d806000811461067c576040519150601f19603f3d011682016040523d82523d6000602084013e610681565b606091505b50509050806106cf5781600460003373ffffffffffffffffffffffffffffffffffffffff1673ffffffffffffffffffffffffffffffffffffffff168152602001908152602001600020819055505b505050565b60046020528060005260406000206000915090505481565b60025481565b600560009054906101000a900460ff1681565b60015481565b600360149054906101000a900460ff1681565b600080600381111561073357610732610be1565b5b600360149054906101000a900460ff16600381111561075557610754610be1565b5b14610795576040517f08c379a000000000000000000000000000000000000000000000000000000000815260040161078c90610d20565b60405180910390fd5b61079d6109e7565b6107dc576040517f08c379a00000000000000000000000000000000000000000000000000000000081526004016107d390610f2d565b60405180910390fd5b34600460003373ffffffffffffffffffffffffffffffffffffffff1673ffffffffffffffffffffffffffffffffffffffff168152602001908152602001600020600082825461082b9190610f7c565b9250508190555034600660008282546108449190610f7c565b9250508190555060015460065410610872576001600560006101000a81548160ff0219169083151502179055505b50565b60065481565b60028060038111156108905761088f610be1565b5b600360149054906101000a900460ff1660038111156108b2576108b1610be1565b5b146108f2576040517f08c379a00000000000000000000000000000000000000000000000000000000081526004016108e990610d20565b60405180910390fd5b6000600360009054906101000a900473ffffffffffffffffffffffffffffffffffffffff1673ffffffffffffffffffffffffffffffffffffffff1660065460405161093c90610ea6565b60006040518083038185875af1925050503d8060008114610979576040519150601f19603f3d011682016040523d82523d6000602084013e61097e565b606091505b5050905080156109b75760038060146101000a81548160ff021916908360038111156109ad576109ac610be1565b5b02179055506109e3565b6001600360146101000a81548160ff021916908360038111156109dd576109dc610be1565b5b02179055505b5050565b60006002546109f46109fa565b10905090565b600042905090565b600081519050919050565b600082825260208201905092915050565b60005b83811015610a3c578082015181840152602081019050610a21565b83811115610a4b576000848401525b50505050565b6000601f19601f8301169050919050565b6000610a6d82610a02565b610a778185610a0d565b9350610a87818560208601610a1e565b610a9081610a51565b840191505092915050565b60006020820190508181036000830152610ab58184610a62565b905092915050565b600073ffffffffffffffffffffffffffffffffffffffff82169050919050565b6000610ae882610abd565b9050919050565b610af881610add565b82525050565b6000602082019050610b136000830184610aef565b92915050565b600080fd5b610b2781610add565b8114610b3257600080fd5b50565b600081359050610b4481610b1e565b92915050565b600060208284031215610b6057610b5f610b19565b5b6000610b6e84828501610b35565b91505092915050565b6000819050919050565b610b8a81610b77565b82525050565b6000602082019050610ba56000830184610b81565b92915050565b60008115159050919050565b610bc081610bab565b82525050565b6000602082019050610bdb6000830184610bb7565b92915050565b7f4e487b7100000000000000000000000000000000000000000000000000000000600052602160045260246000fd5b60048110610c2157610c20610be1565b5b50565b6000819050610c3282610c10565b919050565b6000610c4282610c24565b9050919050565b610c5281610c37565b82525050565b6000602082019050610c6d6000830184610c49565b92915050565b7f4e487b7100000000000000000000000000000000000000000000000000000000600052602260045260246000fd5b60006002820490506001821680610cba57607f821691505b60208210811415610cce57610ccd610c73565b5b50919050565b7f496e76616c696420737461746500000000000000000000000000000000000000600082015250565b6000610d0a600d83610a0d565b9150610d1582610cd4565b602082019050919050565b60006020820190508181036000830152610d3981610cfd565b9050919050565b7f43616e6e6f742066696e6973682063616d706169676e206265666f726520612060008201527f646561646c696e65000000000000000000000000000000000000000000000000602082015250565b6000610d9c602883610a0d565b9150610da782610d40565b604082019050919050565b60006020820190508181036000830152610dcb81610d8f565b9050919050565b6000606082019050610de76000830186610aef565b610df46020830185610b81565b610e016040830184610bb7565b949350505050565b7f4e6f7468696e672077617320636f6e7472696275746564000000000000000000600082015250565b6000610e3f601783610a0d565b9150610e4a82610e09565b602082019050919050565b60006020820190508181036000830152610e6e81610e32565b9050919050565b600081905092915050565b50565b6000610e90600083610e75565b9150610e9b82610e80565b600082019050919050565b6000610eb182610e83565b9150819050919050565b7f4e6f20636f6e747269627574696f6e732061667465722074686520646561646c60008201527f696e650000000000000000000000000000000000000000000000000000000000602082015250565b6000610f17602383610a0d565b9150610f2282610ebb565b604082019050919050565b60006020820190508181036000830152610f4681610f0a565b9050919050565b7f4e487b7100000000000000000000000000000000000000000000000000000000600052601160045260246000fd5b6000610f8782610b77565b9150610f9283610b77565b9250827fffffffffffffffffffffffffffffffffffffffffffffffffffffffffffffffff03821115610fc757610fc6610f4d565b5b82820190509291505056fea2646970667358221220fdde7d38f5af4f5771dc38cf16c72553fe333e044c9000e6de078f2593dc60ef64736f6c63430008090033",
  "immutableReferences": {},
  "source": "pragma solidity 0.8.9;\n\nimport \"./Utils.sol\";\n\ncontract CrowdFundingWithDeadline {\n\n    using Utils for *;\n\n    enum State { Ongoing, Failed, Succeeded, PaidOut }\n\n    event CampaignFinished(\n        address adr,\n        uint totalCollected,\n        bool succeeded\n    );\n\n    string public name; //campaign name\n    uint public targetAmount;\n    uint public fundingDeadline; // in sec from 1.1.1970\n    address public beneficiary;\n    State public state;\n\n    mapping(address=>uint) public amounts; //dictionary address, amount -> we will use this if campaign fails and we need to return funds\n    bool public collected; //if collected campaign is successful\n    uint public totalCollected; //total amount collected\n\n    modifier inState(State expectedState){\n        require(state == expectedState, \"Invalid state\");\n        _;\n    }\n\n    constructor(\n        string memory contractName,\n        uint targetAmountEth,\n        uint durationInMin,\n        address beneficiaryAddress\n    ){\n        name = contractName;\n        //targetAmount = targetAmountEth * 1 ether; \n        targetAmount = Utils.ethToWei(targetAmountEth); \n        //fundingDeadline = currentTime() + durationInMin * 1 minutes;\n        fundingDeadline = currentTime() + Utils.minutesToSeconds(durationInMin);\n        beneficiary = beneficiaryAddress;\n        state = State.Ongoing;\n    }\n\n    function contribute() public payable inState(State.Ongoing){\n        require(beforeDeadline(), \"No contributions after the deadline\");\n        amounts[msg.sender] += msg.value;\n        totalCollected += msg.value;\n\n        if (totalCollected >= targetAmount)\n            collected = true;    \n\n    }\n\n    function beforeDeadline() private view returns(bool) {\n        return currentTime() < fundingDeadline;\n    }\n\n    function currentTime() internal virtual view returns(uint){\n        return block.timestamp;\n    }\n\n    function finishCrowdFunding() public inState(State.Ongoing){\n        require(!beforeDeadline(), \"Cannot finish campaign before a deadline\");\n\n        if (!collected)\n            state = State.Failed;\n        else\n            state = State.Succeeded;\n\n        emit CampaignFinished(address(this), totalCollected, collected);\n    }\n\n    function collect() public inState(State.Succeeded){\n        (bool success, ) = (beneficiary.call{value: totalCollected}(\"\"));\n        if (success)\n            state = State.PaidOut;\n        else\n            state = State.Failed;\n    }\n\n    function withdraw() public inState(State.Failed){\n        require(amounts[msg.sender] > 0, \"Nothing was contributed\");\n        uint contributed = amounts[msg.sender];\n        amounts[msg.sender] = 0;\n\n        (bool success, ) = (msg.sender.call{value: contributed}(\"\"));\n        if (!success)\n            amounts[msg.sender] = contributed;    \n    }\n} ",
  "sourcePath": "/home/vmuser/sandbox/CrowdFunding/contracts/CrowdFundingWithDeadline.sol",
  "compiler": {
    "name": "solc",
    "version": "0.8.9+commit.e5eed63a.Emscripten.clang"
  },
  "schemaVersion": "3.4.3",
  "updatedAt": "2021-10-31T22:21:00.816Z",
  "networkType": "ethereum",
  "devdoc": {
    "kind": "dev",
    "methods": {},
    "version": 1
  },
  "userdoc": {
    "kind": "user",
    "methods": {},
    "version": 1
  }
}