{
  "contractName": "TestCrowdFundingWithDeadline",
  "abi": [
    {
      "inputs": [
        {
          "internalType": "string",
          "name": "contractName",
          "type": "string"
        },
        {
          "internalType": "uint256",
          "name": "targetAmountEth",
          "type": "uint256"
        },
        {
          "internalType": "uint256",
          "name": "durationInMin",
          "type": "uint256"
        },
        {
          "internalType": "address",
          "name": "beneficiaryAddress",
          "type": "address"
        }
      ],
      "stateMutability": "nonpayable",
      "type": "constructor"
    },
    {
      "inputs": [
        {
          "internalType": "address",
          "name": "",
          "type": "address"
        }
      ],
      "name": "amounts",
      "outputs": [
        {
          "internalType": "uint256",
          "name": "",
          "type": "uint256"
        }
      ],
      "stateMutability": "view",
      "type": "function"
    },
    {
      "inputs": [],
      "name": "beneficiary",
      "outputs": [
        {
          "internalType": "address",
          "name": "",
          "type": "address"
        }
      ],
      "stateMutability": "view",
      "type": "function"
    },
    {
      "inputs": [],
      "name": "collected",
      "outputs": [
        {
          "internalType": "bool",
          "name": "",
          "type": "bool"
        }
      ],
      "stateMutability": "view",
      "type": "function"
    },
    {
      "inputs": [],
      "name": "contribute",
      "outputs": [],
      "stateMutability": "payable",
      "type": "function"
    },
    {
      "inputs": [],
      "name": "finishCrowdFunding",
      "outputs": [],
      "stateMutability": "nonpayable",
      "type": "function"
    },
    {
      "inputs": [],
      "name": "fundingDeadline",
      "outputs": [
        {
          "internalType": "uint256",
          "name": "",
          "type": "uint256"
        }
      ],
      "stateMutability": "view",
      "type": "function"
    },
    {
      "inputs": [],
      "name": "name",
      "outputs": [
        {
          "internalType": "string",
          "name": "",
          "type": "string"
        }
      ],
      "stateMutability": "view",
      "type": "function"
    },
    {
      "inputs": [],
      "name": "state",
      "outputs": [
        {
          "internalType": "enum CrowdFundingWithDeadline.State",
          "name": "",
          "type": "uint8"
        }
      ],
      "stateMutability": "view",
      "type": "function"
    },
    {
      "inputs": [],
      "name": "targetAmount",
      "outputs": [
        {
          "internalType": "uint256",
          "name": "",
          "type": "uint256"
        }
      ],
      "stateMutability": "view",
      "type": "function"
    },
    {
      "inputs": [],
      "name": "totalCollected",
      "outputs": [
        {
          "internalType": "uint256",
          "name": "",
          "type": "uint256"
        }
      ],
      "stateMutability": "view",
      "type": "function"
    },
    {
      "inputs": [
        {
          "internalType": "uint256",
          "name": "newTime",
          "type": "uint256"
        }
      ],
      "name": "setCurrentTime",
      "outputs": [],
      "stateMutability": "nonpayable",
      "type": "function"
    }
  ],
  "bytecode": "0x60806040523480156200001157600080fd5b50604051620011b6380380620011b6833981810160405281019062000037919062000415565b8383838383600090805190602001906200005392919062000128565b50670de0b6b3a7640000836200006a9190620004d5565b600181905550603c826200007f9190620004d5565b6200008f6200011e60201b60201c565b6200009b919062000536565b60028190555080600360006101000a81548173ffffffffffffffffffffffffffffffffffffffff021916908373ffffffffffffffffffffffffffffffffffffffff1602179055506000600360146101000a81548160ff021916908360038111156200010b576200010a62000593565b5b0217905550505050505050505062000627565b6000600754905090565b8280546200013690620005f1565b90600052602060002090601f0160209004810192826200015a5760008555620001a6565b82601f106200017557805160ff1916838001178555620001a6565b82800160010185558215620001a6579182015b82811115620001a557825182559160200191906001019062000188565b5b509050620001b59190620001b9565b5090565b5b80821115620001d4576000816000905550600101620001ba565b5090565b6000604051905090565b600080fd5b600080fd5b600080fd5b600080fd5b6000601f19601f8301169050919050565b7f4e487b7100000000000000000000000000000000000000000000000000000000600052604160045260246000fd5b6200024182620001f6565b810181811067ffffffffffffffff8211171562000263576200026262000207565b5b80604052505050565b600062000278620001d8565b905062000286828262000236565b919050565b600067ffffffffffffffff821115620002a957620002a862000207565b5b620002b482620001f6565b9050602081019050919050565b60005b83811015620002e1578082015181840152602081019050620002c4565b83811115620002f1576000848401525b50505050565b60006200030e62000308846200028b565b6200026c565b9050828152602081018484840111156200032d576200032c620001f1565b5b6200033a848285620002c1565b509392505050565b600082601f8301126200035a5762000359620001ec565b5b81516200036c848260208601620002f7565b91505092915050565b6000819050919050565b6200038a8162000375565b81146200039657600080fd5b50565b600081519050620003aa816200037f565b92915050565b600073ffffffffffffffffffffffffffffffffffffffff82169050919050565b6000620003dd82620003b0565b9050919050565b620003ef81620003d0565b8114620003fb57600080fd5b50565b6000815190506200040f81620003e4565b92915050565b60008060008060808587031215620004325762000431620001e2565b5b600085015167ffffffffffffffff811115620004535762000452620001e7565b5b620004618782880162000342565b9450506020620004748782880162000399565b9350506040620004878782880162000399565b92505060606200049a87828801620003fe565b91505092959194509250565b7f4e487b7100000000000000000000000000000000000000000000000000000000600052601160045260246000fd5b6000620004e28262000375565b9150620004ef8362000375565b9250817fffffffffffffffffffffffffffffffffffffffffffffffffffffffffffffffff04831182151516156200052b576200052a620004a6565b5b828202905092915050565b6000620005438262000375565b9150620005508362000375565b9250827fffffffffffffffffffffffffffffffffffffffffffffffffffffffffffffffff03821115620005885762000587620004a6565b5b828201905092915050565b7f4e487b7100000000000000000000000000000000000000000000000000000000600052602160045260246000fd5b7f4e487b7100000000000000000000000000000000000000000000000000000000600052602260045260246000fd5b600060028204905060018216806200060a57607f821691505b60208210811415620006215762000620620005c2565b5b50919050565b610b7f80620006376000396000f3fe60806040526004361061009c5760003560e01c8063796b23bb11610064578063796b23bb1461017457806384bcefd41461019f578063953b8fb8146101ca578063c19d93fb146101f5578063d7bb99ba14610220578063e29eb8361461022a5761009c565b806306fdde03146100a1578063083dca11146100cc57806322f8e566146100e357806338af3eed1461010c57806355a3b2c114610137575b600080fd5b3480156100ad57600080fd5b506100b6610255565b6040516100c391906106a2565b60405180910390f35b3480156100d857600080fd5b506100e16102e3565b005b3480156100ef57600080fd5b5061010a600480360381019061010591906106ff565b610415565b005b34801561011857600080fd5b5061012161041f565b60405161012e919061076d565b60405180910390f35b34801561014357600080fd5b5061015e600480360381019061015991906107b4565b610445565b60405161016b91906107f0565b60405180910390f35b34801561018057600080fd5b5061018961045d565b60405161019691906107f0565b60405180910390f35b3480156101ab57600080fd5b506101b4610463565b6040516101c19190610826565b60405180910390f35b3480156101d657600080fd5b506101df610476565b6040516101ec91906107f0565b60405180910390f35b34801561020157600080fd5b5061020a61047c565b60405161021791906108b8565b60405180910390f35b61022861048f565b005b34801561023657600080fd5b5061023f6105e6565b60405161024c91906107f0565b60405180910390f35b6000805461026290610902565b80601f016020809104026020016040519081016040528092919081815260200182805461028e90610902565b80156102db5780601f106102b0576101008083540402835291602001916102db565b820191906000526020600020905b8154815290600101906020018083116102be57829003601f168201915b505050505081565b60008060038111156102f8576102f7610841565b5b600360149054906101000a900460ff16600381111561031a57610319610841565b5b1461035a576040517f08c379a000000000000000000000000000000000000000000000000000000000815260040161035190610980565b60405180910390fd5b6103626105ec565b156103a2576040517f08c379a000000000000000000000000000000000000000000000000000000000815260040161039990610a12565b60405180910390fd5b600560009054906101000a900460ff166103e6576001600360146101000a81548160ff021916908360038111156103dc576103db610841565b5b0217905550610412565b6002600360146101000a81548160ff0219169083600381111561040c5761040b610841565b5b02179055505b50565b8060078190555050565b600360009054906101000a900473ffffffffffffffffffffffffffffffffffffffff1681565b60046020528060005260406000206000915090505481565b60025481565b600560009054906101000a900460ff1681565b60015481565b600360149054906101000a900460ff1681565b60008060038111156104a4576104a3610841565b5b600360149054906101000a900460ff1660038111156104c6576104c5610841565b5b14610506576040517f08c379a00000000000000000000000000000000000000000000000000000000081526004016104fd90610980565b60405180910390fd5b61050e6105ec565b61054d576040517f08c379a000000000000000000000000000000000000000000000000000000000815260040161054490610aa4565b60405180910390fd5b34600460003373ffffffffffffffffffffffffffffffffffffffff1673ffffffffffffffffffffffffffffffffffffffff168152602001908152602001600020600082825461059c9190610af3565b9250508190555034600660008282546105b59190610af3565b92505081905550600154600654106105e3576001600560006101000a81548160ff0219169083151502179055505b50565b60065481565b60006002546105f96105ff565b10905090565b6000600754905090565b600081519050919050565b600082825260208201905092915050565b60005b83811015610643578082015181840152602081019050610628565b83811115610652576000848401525b50505050565b6000601f19601f8301169050919050565b600061067482610609565b61067e8185610614565b935061068e818560208601610625565b61069781610658565b840191505092915050565b600060208201905081810360008301526106bc8184610669565b905092915050565b600080fd5b6000819050919050565b6106dc816106c9565b81146106e757600080fd5b50565b6000813590506106f9816106d3565b92915050565b600060208284031215610715576107146106c4565b5b6000610723848285016106ea565b91505092915050565b600073ffffffffffffffffffffffffffffffffffffffff82169050919050565b60006107578261072c565b9050919050565b6107678161074c565b82525050565b6000602082019050610782600083018461075e565b92915050565b6107918161074c565b811461079c57600080fd5b50565b6000813590506107ae81610788565b92915050565b6000602082840312156107ca576107c96106c4565b5b60006107d88482850161079f565b91505092915050565b6107ea816106c9565b82525050565b600060208201905061080560008301846107e1565b92915050565b60008115159050919050565b6108208161080b565b82525050565b600060208201905061083b6000830184610817565b92915050565b7f4e487b7100000000000000000000000000000000000000000000000000000000600052602160045260246000fd5b6004811061088157610880610841565b5b50565b600081905061089282610870565b919050565b60006108a282610884565b9050919050565b6108b281610897565b82525050565b60006020820190506108cd60008301846108a9565b92915050565b7f4e487b7100000000000000000000000000000000000000000000000000000000600052602260045260246000fd5b6000600282049050600182168061091a57607f821691505b6020821081141561092e5761092d6108d3565b5b50919050565b7f496e76616c696420737461746500000000000000000000000000000000000000600082015250565b600061096a600d83610614565b915061097582610934565b602082019050919050565b600060208201905081810360008301526109998161095d565b9050919050565b7f43616e6e6f742066696e6973682063616d706169676e206265666f726520612060008201527f646561646c696e65000000000000000000000000000000000000000000000000602082015250565b60006109fc602883610614565b9150610a07826109a0565b604082019050919050565b60006020820190508181036000830152610a2b816109ef565b9050919050565b7f4e6f20636f6e747269627574696f6e732061667465722074686520646561646c60008201527f696e650000000000000000000000000000000000000000000000000000000000602082015250565b6000610a8e602383610614565b9150610a9982610a32565b604082019050919050565b60006020820190508181036000830152610abd81610a81565b9050919050565b7f4e487b7100000000000000000000000000000000000000000000000000000000600052601160045260246000fd5b6000610afe826106c9565b9150610b09836106c9565b9250827fffffffffffffffffffffffffffffffffffffffffffffffffffffffffffffffff03821115610b3e57610b3d610ac4565b5b82820190509291505056fea2646970667358221220750fa2fc29e4a773d580b155641c767fd89a54a908898b16e9a6eda47f1fea0d64736f6c63430008090033",
  "immutableReferences": {},
  "source": "pragma solidity 0.8.9;\nimport \"./CrowdFundingWithDeadline.sol\";\n\ncontract TestCrowdFundingWithDeadline is CrowdFundingWithDeadline {\n\n    uint time;\n    constructor(\n        string memory contractName,\n        uint targetAmountEth,\n        uint durationInMin,\n        address beneficiaryAddress\n    ) \n    CrowdFundingWithDeadline(contractName, targetAmountEth, durationInMin, beneficiaryAddress){}\n    \n\n    function currentTime() internal override view returns(uint){\n        return time;\n    }\n\n    function setCurrentTime(uint newTime) public {\n        time = newTime;\n    }\n}",
  "sourcePath": "/home/vmuser/sandbox/CrowdFunding/contracts/TestCrowdFundingWithDeadline.sol",
  "compiler": {
    "name": "solc",
    "version": "0.8.9+commit.e5eed63a.Emscripten.clang"
  },
  "schemaVersion": "3.4.3",
  "updatedAt": "2021-10-19T21:41:11.418Z",
  "devdoc": {
    "kind": "dev",
    "methods": {},
    "version": 1
  },
  "userdoc": {
    "kind": "user",
    "methods": {},
    "version": 1
  }
}