{
  "contractName": "TestCrowdFundingWithDeadline",
  "abi": [
    {
      "inputs": [
        {
          "internalType": "string",
          "name": "contractName",
          "type": "string"
        },
        {
          "internalType": "uint256",
          "name": "targetAmountEth",
          "type": "uint256"
        },
        {
          "internalType": "uint256",
          "name": "durationInMin",
          "type": "uint256"
        },
        {
          "internalType": "address",
          "name": "beneficiaryAddress",
          "type": "address"
        }
      ],
      "stateMutability": "nonpayable",
      "type": "constructor"
    },
    {
      "anonymous": false,
      "inputs": [
        {
          "indexed": false,
          "internalType": "address",
          "name": "adr",
          "type": "address"
        },
        {
          "indexed": false,
          "internalType": "uint256",
          "name": "totalCollected",
          "type": "uint256"
        },
        {
          "indexed": false,
          "internalType": "bool",
          "name": "succeeded",
          "type": "bool"
        }
      ],
      "name": "CampaignFinished",
      "type": "event"
    },
    {
      "inputs": [
        {
          "internalType": "address",
          "name": "",
          "type": "address"
        }
      ],
      "name": "amounts",
      "outputs": [
        {
          "internalType": "uint256",
          "name": "",
          "type": "uint256"
        }
      ],
      "stateMutability": "view",
      "type": "function"
    },
    {
      "inputs": [],
      "name": "beneficiary",
      "outputs": [
        {
          "internalType": "address",
          "name": "",
          "type": "address"
        }
      ],
      "stateMutability": "view",
      "type": "function"
    },
    {
      "inputs": [],
      "name": "collect",
      "outputs": [],
      "stateMutability": "nonpayable",
      "type": "function"
    },
    {
      "inputs": [],
      "name": "collected",
      "outputs": [
        {
          "internalType": "bool",
          "name": "",
          "type": "bool"
        }
      ],
      "stateMutability": "view",
      "type": "function"
    },
    {
      "inputs": [],
      "name": "contribute",
      "outputs": [],
      "stateMutability": "payable",
      "type": "function"
    },
    {
      "inputs": [],
      "name": "finishCrowdFunding",
      "outputs": [],
      "stateMutability": "nonpayable",
      "type": "function"
    },
    {
      "inputs": [],
      "name": "fundingDeadline",
      "outputs": [
        {
          "internalType": "uint256",
          "name": "",
          "type": "uint256"
        }
      ],
      "stateMutability": "view",
      "type": "function"
    },
    {
      "inputs": [],
      "name": "name",
      "outputs": [
        {
          "internalType": "string",
          "name": "",
          "type": "string"
        }
      ],
      "stateMutability": "view",
      "type": "function"
    },
    {
      "inputs": [],
      "name": "state",
      "outputs": [
        {
          "internalType": "enum CrowdFundingWithDeadline.State",
          "name": "",
          "type": "uint8"
        }
      ],
      "stateMutability": "view",
      "type": "function"
    },
    {
      "inputs": [],
      "name": "targetAmount",
      "outputs": [
        {
          "internalType": "uint256",
          "name": "",
          "type": "uint256"
        }
      ],
      "stateMutability": "view",
      "type": "function"
    },
    {
      "inputs": [],
      "name": "totalCollected",
      "outputs": [
        {
          "internalType": "uint256",
          "name": "",
          "type": "uint256"
        }
      ],
      "stateMutability": "view",
      "type": "function"
    },
    {
      "inputs": [],
      "name": "withdraw",
      "outputs": [],
      "stateMutability": "nonpayable",
      "type": "function"
    },
    {
      "inputs": [
        {
          "internalType": "uint256",
          "name": "newTime",
          "type": "uint256"
        }
      ],
      "name": "setCurrentTime",
      "outputs": [],
      "stateMutability": "nonpayable",
      "type": "function"
    }
  ],
  "bytecode": "0x60806040523480156200001157600080fd5b50604051620017dc380380620017dc83398181016040528101906200003791906200050a565b838383838360009080519060200190620000539291906200021d565b5073__Utils_________________________________6388439bbc846040518263ffffffff1660e01b81526004016200008d9190620005ac565b60206040518083038186803b158015620000a657600080fd5b505af4158015620000bb573d6000803e3d6000fd5b505050506040513d601f19601f82011682018060405250810190620000e19190620005c9565b60018190555073__Utils_________________________________63529b380f836040518263ffffffff1660e01b8152600401620001209190620005ac565b60206040518083038186803b1580156200013957600080fd5b505af41580156200014e573d6000803e3d6000fd5b505050506040513d601f19601f82011682018060405250810190620001749190620005c9565b620001846200021360201b60201c565b6200019091906200062a565b60028190555080600360006101000a81548173ffffffffffffffffffffffffffffffffffffffff021916908373ffffffffffffffffffffffffffffffffffffffff1602179055506000600360146101000a81548160ff021916908360038111156200020057620001ff62000687565b5b021790555050505050505050506200071b565b6000600754905090565b8280546200022b90620006e5565b90600052602060002090601f0160209004810192826200024f57600085556200029b565b82601f106200026a57805160ff19168380011785556200029b565b828001600101855582156200029b579182015b828111156200029a5782518255916020019190600101906200027d565b5b509050620002aa9190620002ae565b5090565b5b80821115620002c9576000816000905550600101620002af565b5090565b6000604051905090565b600080fd5b600080fd5b600080fd5b600080fd5b6000601f19601f8301169050919050565b7f4e487b7100000000000000000000000000000000000000000000000000000000600052604160045260246000fd5b6200033682620002eb565b810181811067ffffffffffffffff82111715620003585762000357620002fc565b5b80604052505050565b60006200036d620002cd565b90506200037b82826200032b565b919050565b600067ffffffffffffffff8211156200039e576200039d620002fc565b5b620003a982620002eb565b9050602081019050919050565b60005b83811015620003d6578082015181840152602081019050620003b9565b83811115620003e6576000848401525b50505050565b600062000403620003fd8462000380565b62000361565b905082815260208101848484011115620004225762000421620002e6565b5b6200042f848285620003b6565b509392505050565b600082601f8301126200044f576200044e620002e1565b5b815162000461848260208601620003ec565b91505092915050565b6000819050919050565b6200047f816200046a565b81146200048b57600080fd5b50565b6000815190506200049f8162000474565b92915050565b600073ffffffffffffffffffffffffffffffffffffffff82169050919050565b6000620004d282620004a5565b9050919050565b620004e481620004c5565b8114620004f057600080fd5b50565b6000815190506200050481620004d9565b92915050565b60008060008060808587031215620005275762000526620002d7565b5b600085015167ffffffffffffffff811115620005485762000547620002dc565b5b620005568782880162000437565b945050602062000569878288016200048e565b93505060406200057c878288016200048e565b92505060606200058f87828801620004f3565b91505092959194509250565b620005a6816200046a565b82525050565b6000602082019050620005c360008301846200059b565b92915050565b600060208284031215620005e257620005e1620002d7565b5b6000620005f2848285016200048e565b91505092915050565b7f4e487b7100000000000000000000000000000000000000000000000000000000600052601160045260246000fd5b600062000637826200046a565b915062000644836200046a565b9250827fffffffffffffffffffffffffffffffffffffffffffffffffffffffffffffffff038211156200067c576200067b620005fb565b5b828201905092915050565b7f4e487b7100000000000000000000000000000000000000000000000000000000600052602160045260246000fd5b7f4e487b7100000000000000000000000000000000000000000000000000000000600052602260045260246000fd5b60006002820490506001821680620006fe57607f821691505b60208210811415620007155762000714620006b6565b5b50919050565b6110b1806200072b6000396000f3fe6080604052600436106100c25760003560e01c8063796b23bb1161007f578063c19d93fb11610059578063c19d93fb14610232578063d7bb99ba1461025d578063e29eb83614610267578063e522538114610292576100c2565b8063796b23bb146101b157806384bcefd4146101dc578063953b8fb814610207576100c2565b806306fdde03146100c7578063083dca11146100f257806322f8e5661461010957806338af3eed146101325780633ccfd60b1461015d57806355a3b2c114610174575b600080fd5b3480156100d357600080fd5b506100dc6102a9565b6040516100e99190610aeb565b60405180910390f35b3480156100fe57600080fd5b50610107610337565b005b34801561011557600080fd5b50610130600480360381019061012b9190610b48565b6104b5565b005b34801561013e57600080fd5b506101476104bf565b6040516101549190610bb6565b60405180910390f35b34801561016957600080fd5b506101726104e5565b005b34801561018057600080fd5b5061019b60048036038101906101969190610bfd565b610722565b6040516101a89190610c39565b60405180910390f35b3480156101bd57600080fd5b506101c661073a565b6040516101d39190610c39565b60405180910390f35b3480156101e857600080fd5b506101f1610740565b6040516101fe9190610c6f565b60405180910390f35b34801561021357600080fd5b5061021c610753565b6040516102299190610c39565b60405180910390f35b34801561023e57600080fd5b50610247610759565b6040516102549190610d01565b60405180910390f35b61026561076c565b005b34801561027357600080fd5b5061027c6108c3565b6040516102899190610c39565b60405180910390f35b34801561029e57600080fd5b506102a76108c9565b005b600080546102b690610d4b565b80601f01602080910402602001604051908101604052809291908181526020018280546102e290610d4b565b801561032f5780601f106103045761010080835404028352916020019161032f565b820191906000526020600020905b81548152906001019060200180831161031257829003601f168201915b505050505081565b600080600381111561034c5761034b610c8a565b5b600360149054906101000a900460ff16600381111561036e5761036d610c8a565b5b146103ae576040517f08c379a00000000000000000000000000000000000000000000000000000000081526004016103a590610dc9565b60405180910390fd5b6103b6610a35565b156103f6576040517f08c379a00000000000000000000000000000000000000000000000000000000081526004016103ed90610e5b565b60405180910390fd5b600560009054906101000a900460ff1661043a576001600360146101000a81548160ff021916908360038111156104305761042f610c8a565b5b0217905550610466565b6002600360146101000a81548160ff021916908360038111156104605761045f610c8a565b5b02179055505b7f6fa7e87ebbd87ed4f1c40bba63144f68fd2bb022fb748ab3b61b5411c39bd47430600654600560009054906101000a900460ff166040516104aa93929190610e7b565b60405180910390a150565b8060078190555050565b600360009054906101000a900473ffffffffffffffffffffffffffffffffffffffff1681565b60018060038111156104fa576104f9610c8a565b5b600360149054906101000a900460ff16600381111561051c5761051b610c8a565b5b1461055c576040517f08c379a000000000000000000000000000000000000000000000000000000000815260040161055390610dc9565b60405180910390fd5b6000600460003373ffffffffffffffffffffffffffffffffffffffff1673ffffffffffffffffffffffffffffffffffffffff16815260200190815260200160002054116105de576040517f08c379a00000000000000000000000000000000000000000000000000000000081526004016105d590610efe565b60405180910390fd5b6000600460003373ffffffffffffffffffffffffffffffffffffffff1673ffffffffffffffffffffffffffffffffffffffff1681526020019081526020016000205490506000600460003373ffffffffffffffffffffffffffffffffffffffff1673ffffffffffffffffffffffffffffffffffffffff1681526020019081526020016000208190555060003373ffffffffffffffffffffffffffffffffffffffff168260405161068d90610f4f565b60006040518083038185875af1925050503d80600081146106ca576040519150601f19603f3d011682016040523d82523d6000602084013e6106cf565b606091505b505090508061071d5781600460003373ffffffffffffffffffffffffffffffffffffffff1673ffffffffffffffffffffffffffffffffffffffff168152602001908152602001600020819055505b505050565b60046020528060005260406000206000915090505481565b60025481565b600560009054906101000a900460ff1681565b60015481565b600360149054906101000a900460ff1681565b600080600381111561078157610780610c8a565b5b600360149054906101000a900460ff1660038111156107a3576107a2610c8a565b5b146107e3576040517f08c379a00000000000000000000000000000000000000000000000000000000081526004016107da90610dc9565b60405180910390fd5b6107eb610a35565b61082a576040517f08c379a000000000000000000000000000000000000000000000000000000000815260040161082190610fd6565b60405180910390fd5b34600460003373ffffffffffffffffffffffffffffffffffffffff1673ffffffffffffffffffffffffffffffffffffffff16815260200190815260200160002060008282546108799190611025565b9250508190555034600660008282546108929190611025565b92505081905550600154600654106108c0576001600560006101000a81548160ff0219169083151502179055505b50565b60065481565b60028060038111156108de576108dd610c8a565b5b600360149054906101000a900460ff166003811115610900576108ff610c8a565b5b14610940576040517f08c379a000000000000000000000000000000000000000000000000000000000815260040161093790610dc9565b60405180910390fd5b6000600360009054906101000a900473ffffffffffffffffffffffffffffffffffffffff1673ffffffffffffffffffffffffffffffffffffffff1660065460405161098a90610f4f565b60006040518083038185875af1925050503d80600081146109c7576040519150601f19603f3d011682016040523d82523d6000602084013e6109cc565b606091505b505090508015610a055760038060146101000a81548160ff021916908360038111156109fb576109fa610c8a565b5b0217905550610a31565b6001600360146101000a81548160ff02191690836003811115610a2b57610a2a610c8a565b5b02179055505b5050565b6000600254610a42610a48565b10905090565b6000600754905090565b600081519050919050565b600082825260208201905092915050565b60005b83811015610a8c578082015181840152602081019050610a71565b83811115610a9b576000848401525b50505050565b6000601f19601f8301169050919050565b6000610abd82610a52565b610ac78185610a5d565b9350610ad7818560208601610a6e565b610ae081610aa1565b840191505092915050565b60006020820190508181036000830152610b058184610ab2565b905092915050565b600080fd5b6000819050919050565b610b2581610b12565b8114610b3057600080fd5b50565b600081359050610b4281610b1c565b92915050565b600060208284031215610b5e57610b5d610b0d565b5b6000610b6c84828501610b33565b91505092915050565b600073ffffffffffffffffffffffffffffffffffffffff82169050919050565b6000610ba082610b75565b9050919050565b610bb081610b95565b82525050565b6000602082019050610bcb6000830184610ba7565b92915050565b610bda81610b95565b8114610be557600080fd5b50565b600081359050610bf781610bd1565b92915050565b600060208284031215610c1357610c12610b0d565b5b6000610c2184828501610be8565b91505092915050565b610c3381610b12565b82525050565b6000602082019050610c4e6000830184610c2a565b92915050565b60008115159050919050565b610c6981610c54565b82525050565b6000602082019050610c846000830184610c60565b92915050565b7f4e487b7100000000000000000000000000000000000000000000000000000000600052602160045260246000fd5b60048110610cca57610cc9610c8a565b5b50565b6000819050610cdb82610cb9565b919050565b6000610ceb82610ccd565b9050919050565b610cfb81610ce0565b82525050565b6000602082019050610d166000830184610cf2565b92915050565b7f4e487b7100000000000000000000000000000000000000000000000000000000600052602260045260246000fd5b60006002820490506001821680610d6357607f821691505b60208210811415610d7757610d76610d1c565b5b50919050565b7f496e76616c696420737461746500000000000000000000000000000000000000600082015250565b6000610db3600d83610a5d565b9150610dbe82610d7d565b602082019050919050565b60006020820190508181036000830152610de281610da6565b9050919050565b7f43616e6e6f742066696e6973682063616d706169676e206265666f726520612060008201527f646561646c696e65000000000000000000000000000000000000000000000000602082015250565b6000610e45602883610a5d565b9150610e5082610de9565b604082019050919050565b60006020820190508181036000830152610e7481610e38565b9050919050565b6000606082019050610e906000830186610ba7565b610e9d6020830185610c2a565b610eaa6040830184610c60565b949350505050565b7f4e6f7468696e672077617320636f6e7472696275746564000000000000000000600082015250565b6000610ee8601783610a5d565b9150610ef382610eb2565b602082019050919050565b60006020820190508181036000830152610f1781610edb565b9050919050565b600081905092915050565b50565b6000610f39600083610f1e565b9150610f4482610f29565b600082019050919050565b6000610f5a82610f2c565b9150819050919050565b7f4e6f20636f6e747269627574696f6e732061667465722074686520646561646c60008201527f696e650000000000000000000000000000000000000000000000000000000000602082015250565b6000610fc0602383610a5d565b9150610fcb82610f64565b604082019050919050565b60006020820190508181036000830152610fef81610fb3565b9050919050565b7f4e487b7100000000000000000000000000000000000000000000000000000000600052601160045260246000fd5b600061103082610b12565b915061103b83610b12565b9250827fffffffffffffffffffffffffffffffffffffffffffffffffffffffffffffffff038211156110705761106f610ff6565b5b82820190509291505056fea2646970667358221220686fe73c4dea8cdd72490bee954ff01857e7f822cb3eee33129e9370ae7316b664736f6c63430008090033",
  "deployedBytecode": "0x6080604052600436106100c25760003560e01c8063796b23bb1161007f578063c19d93fb11610059578063c19d93fb14610232578063d7bb99ba1461025d578063e29eb83614610267578063e522538114610292576100c2565b8063796b23bb146101b157806384bcefd4146101dc578063953b8fb814610207576100c2565b806306fdde03146100c7578063083dca11146100f257806322f8e5661461010957806338af3eed146101325780633ccfd60b1461015d57806355a3b2c114610174575b600080fd5b3480156100d357600080fd5b506100dc6102a9565b6040516100e99190610aeb565b60405180910390f35b3480156100fe57600080fd5b50610107610337565b005b34801561011557600080fd5b50610130600480360381019061012b9190610b48565b6104b5565b005b34801561013e57600080fd5b506101476104bf565b6040516101549190610bb6565b60405180910390f35b34801561016957600080fd5b506101726104e5565b005b34801561018057600080fd5b5061019b60048036038101906101969190610bfd565b610722565b6040516101a89190610c39565b60405180910390f35b3480156101bd57600080fd5b506101c661073a565b6040516101d39190610c39565b60405180910390f35b3480156101e857600080fd5b506101f1610740565b6040516101fe9190610c6f565b60405180910390f35b34801561021357600080fd5b5061021c610753565b6040516102299190610c39565b60405180910390f35b34801561023e57600080fd5b50610247610759565b6040516102549190610d01565b60405180910390f35b61026561076c565b005b34801561027357600080fd5b5061027c6108c3565b6040516102899190610c39565b60405180910390f35b34801561029e57600080fd5b506102a76108c9565b005b600080546102b690610d4b565b80601f01602080910402602001604051908101604052809291908181526020018280546102e290610d4b565b801561032f5780601f106103045761010080835404028352916020019161032f565b820191906000526020600020905b81548152906001019060200180831161031257829003601f168201915b505050505081565b600080600381111561034c5761034b610c8a565b5b600360149054906101000a900460ff16600381111561036e5761036d610c8a565b5b146103ae576040517f08c379a00000000000000000000000000000000000000000000000000000000081526004016103a590610dc9565b60405180910390fd5b6103b6610a35565b156103f6576040517f08c379a00000000000000000000000000000000000000000000000000000000081526004016103ed90610e5b565b60405180910390fd5b600560009054906101000a900460ff1661043a576001600360146101000a81548160ff021916908360038111156104305761042f610c8a565b5b0217905550610466565b6002600360146101000a81548160ff021916908360038111156104605761045f610c8a565b5b02179055505b7f6fa7e87ebbd87ed4f1c40bba63144f68fd2bb022fb748ab3b61b5411c39bd47430600654600560009054906101000a900460ff166040516104aa93929190610e7b565b60405180910390a150565b8060078190555050565b600360009054906101000a900473ffffffffffffffffffffffffffffffffffffffff1681565b60018060038111156104fa576104f9610c8a565b5b600360149054906101000a900460ff16600381111561051c5761051b610c8a565b5b1461055c576040517f08c379a000000000000000000000000000000000000000000000000000000000815260040161055390610dc9565b60405180910390fd5b6000600460003373ffffffffffffffffffffffffffffffffffffffff1673ffffffffffffffffffffffffffffffffffffffff16815260200190815260200160002054116105de576040517f08c379a00000000000000000000000000000000000000000000000000000000081526004016105d590610efe565b60405180910390fd5b6000600460003373ffffffffffffffffffffffffffffffffffffffff1673ffffffffffffffffffffffffffffffffffffffff1681526020019081526020016000205490506000600460003373ffffffffffffffffffffffffffffffffffffffff1673ffffffffffffffffffffffffffffffffffffffff1681526020019081526020016000208190555060003373ffffffffffffffffffffffffffffffffffffffff168260405161068d90610f4f565b60006040518083038185875af1925050503d80600081146106ca576040519150601f19603f3d011682016040523d82523d6000602084013e6106cf565b606091505b505090508061071d5781600460003373ffffffffffffffffffffffffffffffffffffffff1673ffffffffffffffffffffffffffffffffffffffff168152602001908152602001600020819055505b505050565b60046020528060005260406000206000915090505481565b60025481565b600560009054906101000a900460ff1681565b60015481565b600360149054906101000a900460ff1681565b600080600381111561078157610780610c8a565b5b600360149054906101000a900460ff1660038111156107a3576107a2610c8a565b5b146107e3576040517f08c379a00000000000000000000000000000000000000000000000000000000081526004016107da90610dc9565b60405180910390fd5b6107eb610a35565b61082a576040517f08c379a000000000000000000000000000000000000000000000000000000000815260040161082190610fd6565b60405180910390fd5b34600460003373ffffffffffffffffffffffffffffffffffffffff1673ffffffffffffffffffffffffffffffffffffffff16815260200190815260200160002060008282546108799190611025565b9250508190555034600660008282546108929190611025565b92505081905550600154600654106108c0576001600560006101000a81548160ff0219169083151502179055505b50565b60065481565b60028060038111156108de576108dd610c8a565b5b600360149054906101000a900460ff166003811115610900576108ff610c8a565b5b14610940576040517f08c379a000000000000000000000000000000000000000000000000000000000815260040161093790610dc9565b60405180910390fd5b6000600360009054906101000a900473ffffffffffffffffffffffffffffffffffffffff1673ffffffffffffffffffffffffffffffffffffffff1660065460405161098a90610f4f565b60006040518083038185875af1925050503d80600081146109c7576040519150601f19603f3d011682016040523d82523d6000602084013e6109cc565b606091505b505090508015610a055760038060146101000a81548160ff021916908360038111156109fb576109fa610c8a565b5b0217905550610a31565b6001600360146101000a81548160ff02191690836003811115610a2b57610a2a610c8a565b5b02179055505b5050565b6000600254610a42610a48565b10905090565b6000600754905090565b600081519050919050565b600082825260208201905092915050565b60005b83811015610a8c578082015181840152602081019050610a71565b83811115610a9b576000848401525b50505050565b6000601f19601f8301169050919050565b6000610abd82610a52565b610ac78185610a5d565b9350610ad7818560208601610a6e565b610ae081610aa1565b840191505092915050565b60006020820190508181036000830152610b058184610ab2565b905092915050565b600080fd5b6000819050919050565b610b2581610b12565b8114610b3057600080fd5b50565b600081359050610b4281610b1c565b92915050565b600060208284031215610b5e57610b5d610b0d565b5b6000610b6c84828501610b33565b91505092915050565b600073ffffffffffffffffffffffffffffffffffffffff82169050919050565b6000610ba082610b75565b9050919050565b610bb081610b95565b82525050565b6000602082019050610bcb6000830184610ba7565b92915050565b610bda81610b95565b8114610be557600080fd5b50565b600081359050610bf781610bd1565b92915050565b600060208284031215610c1357610c12610b0d565b5b6000610c2184828501610be8565b91505092915050565b610c3381610b12565b82525050565b6000602082019050610c4e6000830184610c2a565b92915050565b60008115159050919050565b610c6981610c54565b82525050565b6000602082019050610c846000830184610c60565b92915050565b7f4e487b7100000000000000000000000000000000000000000000000000000000600052602160045260246000fd5b60048110610cca57610cc9610c8a565b5b50565b6000819050610cdb82610cb9565b919050565b6000610ceb82610ccd565b9050919050565b610cfb81610ce0565b82525050565b6000602082019050610d166000830184610cf2565b92915050565b7f4e487b7100000000000000000000000000000000000000000000000000000000600052602260045260246000fd5b60006002820490506001821680610d6357607f821691505b60208210811415610d7757610d76610d1c565b5b50919050565b7f496e76616c696420737461746500000000000000000000000000000000000000600082015250565b6000610db3600d83610a5d565b9150610dbe82610d7d565b602082019050919050565b60006020820190508181036000830152610de281610da6565b9050919050565b7f43616e6e6f742066696e6973682063616d706169676e206265666f726520612060008201527f646561646c696e65000000000000000000000000000000000000000000000000602082015250565b6000610e45602883610a5d565b9150610e5082610de9565b604082019050919050565b60006020820190508181036000830152610e7481610e38565b9050919050565b6000606082019050610e906000830186610ba7565b610e9d6020830185610c2a565b610eaa6040830184610c60565b949350505050565b7f4e6f7468696e672077617320636f6e7472696275746564000000000000000000600082015250565b6000610ee8601783610a5d565b9150610ef382610eb2565b602082019050919050565b60006020820190508181036000830152610f1781610edb565b9050919050565b600081905092915050565b50565b6000610f39600083610f1e565b9150610f4482610f29565b600082019050919050565b6000610f5a82610f2c565b9150819050919050565b7f4e6f20636f6e747269627574696f6e732061667465722074686520646561646c60008201527f696e650000000000000000000000000000000000000000000000000000000000602082015250565b6000610fc0602383610a5d565b9150610fcb82610f64565b604082019050919050565b60006020820190508181036000830152610fef81610fb3565b9050919050565b7f4e487b7100000000000000000000000000000000000000000000000000000000600052601160045260246000fd5b600061103082610b12565b915061103b83610b12565b9250827fffffffffffffffffffffffffffffffffffffffffffffffffffffffffffffffff038211156110705761106f610ff6565b5b82820190509291505056fea2646970667358221220686fe73c4dea8cdd72490bee954ff01857e7f822cb3eee33129e9370ae7316b664736f6c63430008090033",
  "immutableReferences": {},
  "source": "pragma solidity 0.8.9;\nimport \"./CrowdFundingWithDeadline.sol\";\n\ncontract TestCrowdFundingWithDeadline is CrowdFundingWithDeadline {\n\n    uint time;\n    constructor(\n        string memory contractName,\n        uint targetAmountEth,\n        uint durationInMin,\n        address beneficiaryAddress\n    ) \n    CrowdFundingWithDeadline(contractName, targetAmountEth, durationInMin, beneficiaryAddress){}\n    \n\n    function currentTime() internal override view returns(uint){\n        return time;\n    }\n\n    function setCurrentTime(uint newTime) public {\n        time = newTime;\n    }\n}",
  "sourcePath": "/home/vmuser/sandbox/CrowdFunding/contracts/TestCrowdFundingWithDeadline.sol",
  "compiler": {
    "name": "solc",
    "version": "0.8.9+commit.e5eed63a.Emscripten.clang"
  },
  "schemaVersion": "3.4.3",
  "updatedAt": "2021-11-06T13:30:56.324Z",
  "devdoc": {
    "kind": "dev",
    "methods": {},
    "version": 1
  },
  "userdoc": {
    "kind": "user",
    "methods": {},
    "version": 1
  }
}