{
  "contractName": "TestCrowdfundinfWithDeadline",
  "abi": [
    {
      "inputs": [
        {
          "internalType": "string",
          "name": "contractName",
          "type": "string"
        },
        {
          "internalType": "uint256",
          "name": "targetAmountEth",
          "type": "uint256"
        },
        {
          "internalType": "uint256",
          "name": "durationInMin",
          "type": "uint256"
        },
        {
          "internalType": "address",
          "name": "beneficiaryAddress",
          "type": "address"
        }
      ],
      "stateMutability": "nonpayable",
      "type": "constructor"
    },
    {
      "inputs": [
        {
          "internalType": "address",
          "name": "",
          "type": "address"
        }
      ],
      "name": "amounts",
      "outputs": [
        {
          "internalType": "uint256",
          "name": "",
          "type": "uint256"
        }
      ],
      "stateMutability": "view",
      "type": "function"
    },
    {
      "inputs": [],
      "name": "beneficiary",
      "outputs": [
        {
          "internalType": "address",
          "name": "",
          "type": "address"
        }
      ],
      "stateMutability": "view",
      "type": "function"
    },
    {
      "inputs": [],
      "name": "collected",
      "outputs": [
        {
          "internalType": "bool",
          "name": "",
          "type": "bool"
        }
      ],
      "stateMutability": "view",
      "type": "function"
    },
    {
      "inputs": [],
      "name": "contribute",
      "outputs": [],
      "stateMutability": "payable",
      "type": "function"
    },
    {
      "inputs": [],
      "name": "fundingDeadline",
      "outputs": [
        {
          "internalType": "uint256",
          "name": "",
          "type": "uint256"
        }
      ],
      "stateMutability": "view",
      "type": "function"
    },
    {
      "inputs": [],
      "name": "name",
      "outputs": [
        {
          "internalType": "string",
          "name": "",
          "type": "string"
        }
      ],
      "stateMutability": "view",
      "type": "function"
    },
    {
      "inputs": [],
      "name": "state",
      "outputs": [
        {
          "internalType": "enum CrowdFundingWithDeadline.State",
          "name": "",
          "type": "uint8"
        }
      ],
      "stateMutability": "view",
      "type": "function"
    },
    {
      "inputs": [],
      "name": "targetAmount",
      "outputs": [
        {
          "internalType": "uint256",
          "name": "",
          "type": "uint256"
        }
      ],
      "stateMutability": "view",
      "type": "function"
    },
    {
      "inputs": [],
      "name": "totalCollected",
      "outputs": [
        {
          "internalType": "uint256",
          "name": "",
          "type": "uint256"
        }
      ],
      "stateMutability": "view",
      "type": "function"
    },
    {
      "inputs": [
        {
          "internalType": "uint256",
          "name": "newTime",
          "type": "uint256"
        }
      ],
      "name": "setCurrentTime",
      "outputs": [],
      "stateMutability": "nonpayable",
      "type": "function"
    }
  ],
  "bytecode": "0x60806040523480156200001157600080fd5b5060405162000edb38038062000edb833981810160405281019062000037919062000415565b8383838383600090805190602001906200005392919062000128565b50670de0b6b3a7640000836200006a9190620004d5565b600181905550603c826200007f9190620004d5565b6200008f6200011e60201b60201c565b6200009b919062000536565b60028190555080600360006101000a81548173ffffffffffffffffffffffffffffffffffffffff021916908373ffffffffffffffffffffffffffffffffffffffff1602179055506000600360146101000a81548160ff021916908360038111156200010b576200010a62000593565b5b0217905550505050505050505062000627565b6000600754905090565b8280546200013690620005f1565b90600052602060002090601f0160209004810192826200015a5760008555620001a6565b82601f106200017557805160ff1916838001178555620001a6565b82800160010185558215620001a6579182015b82811115620001a557825182559160200191906001019062000188565b5b509050620001b59190620001b9565b5090565b5b80821115620001d4576000816000905550600101620001ba565b5090565b6000604051905090565b600080fd5b600080fd5b600080fd5b600080fd5b6000601f19601f8301169050919050565b7f4e487b7100000000000000000000000000000000000000000000000000000000600052604160045260246000fd5b6200024182620001f6565b810181811067ffffffffffffffff8211171562000263576200026262000207565b5b80604052505050565b600062000278620001d8565b905062000286828262000236565b919050565b600067ffffffffffffffff821115620002a957620002a862000207565b5b620002b482620001f6565b9050602081019050919050565b60005b83811015620002e1578082015181840152602081019050620002c4565b83811115620002f1576000848401525b50505050565b60006200030e62000308846200028b565b6200026c565b9050828152602081018484840111156200032d576200032c620001f1565b5b6200033a848285620002c1565b509392505050565b600082601f8301126200035a5762000359620001ec565b5b81516200036c848260208601620002f7565b91505092915050565b6000819050919050565b6200038a8162000375565b81146200039657600080fd5b50565b600081519050620003aa816200037f565b92915050565b600073ffffffffffffffffffffffffffffffffffffffff82169050919050565b6000620003dd82620003b0565b9050919050565b620003ef81620003d0565b8114620003fb57600080fd5b50565b6000815190506200040f81620003e4565b92915050565b60008060008060808587031215620004325762000431620001e2565b5b600085015167ffffffffffffffff811115620004535762000452620001e7565b5b620004618782880162000342565b9450506020620004748782880162000399565b9350506040620004878782880162000399565b92505060606200049a87828801620003fe565b91505092959194509250565b7f4e487b7100000000000000000000000000000000000000000000000000000000600052601160045260246000fd5b6000620004e28262000375565b9150620004ef8362000375565b9250817fffffffffffffffffffffffffffffffffffffffffffffffffffffffffffffffff04831182151516156200052b576200052a620004a6565b5b828202905092915050565b6000620005438262000375565b9150620005508362000375565b9250827fffffffffffffffffffffffffffffffffffffffffffffffffffffffffffffffff03821115620005885762000587620004a6565b5b828201905092915050565b7f4e487b7100000000000000000000000000000000000000000000000000000000600052602160045260246000fd5b7f4e487b7100000000000000000000000000000000000000000000000000000000600052602260045260246000fd5b600060028204905060018216806200060a57607f821691505b60208210811415620006215762000620620005c2565b5b50919050565b6108a480620006376000396000f3fe6080604052600436106100915760003560e01c806384bcefd41161005957806384bcefd41461017d578063953b8fb8146101a8578063c19d93fb146101d3578063d7bb99ba146101fe578063e29eb8361461020857610091565b806306fdde031461009657806322f8e566146100c157806338af3eed146100ea57806355a3b2c114610115578063796b23bb14610152575b600080fd5b3480156100a257600080fd5b506100ab610233565b6040516100b891906104eb565b60405180910390f35b3480156100cd57600080fd5b506100e860048036038101906100e39190610548565b6102c1565b005b3480156100f657600080fd5b506100ff6102cb565b60405161010c91906105b6565b60405180910390f35b34801561012157600080fd5b5061013c600480360381019061013791906105fd565b6102f1565b6040516101499190610639565b60405180910390f35b34801561015e57600080fd5b50610167610309565b6040516101749190610639565b60405180910390f35b34801561018957600080fd5b5061019261030f565b60405161019f919061066f565b60405180910390f35b3480156101b457600080fd5b506101bd610322565b6040516101ca9190610639565b60405180910390f35b3480156101df57600080fd5b506101e8610328565b6040516101f59190610701565b60405180910390f35b61020661033b565b005b34801561021457600080fd5b5061021d61044c565b60405161022a9190610639565b60405180910390f35b600080546102409061074b565b80601f016020809104026020016040519081016040528092919081815260200182805461026c9061074b565b80156102b95780601f1061028e576101008083540402835291602001916102b9565b820191906000526020600020905b81548152906001019060200180831161029c57829003601f168201915b505050505081565b8060078190555050565b600360009054906101000a900473ffffffffffffffffffffffffffffffffffffffff1681565b60046020528060005260406000206000915090505481565b60025481565b600560009054906101000a900460ff1681565b60015481565b600360149054906101000a900460ff1681565b60008060038111156103505761034f61068a565b5b600360149054906101000a900460ff1660038111156103725761037161068a565b5b146103b2576040517f08c379a00000000000000000000000000000000000000000000000000000000081526004016103a9906107c9565b60405180910390fd5b34600460003373ffffffffffffffffffffffffffffffffffffffff1673ffffffffffffffffffffffffffffffffffffffff16815260200190815260200160002060008282546104019190610818565b92505081905550346006600082825461041a9190610818565b925050819055506001546006541115610449576001600560006101000a81548160ff0219169083151502179055505b50565b60065481565b600081519050919050565b600082825260208201905092915050565b60005b8381101561048c578082015181840152602081019050610471565b8381111561049b576000848401525b50505050565b6000601f19601f8301169050919050565b60006104bd82610452565b6104c7818561045d565b93506104d781856020860161046e565b6104e0816104a1565b840191505092915050565b6000602082019050818103600083015261050581846104b2565b905092915050565b600080fd5b6000819050919050565b61052581610512565b811461053057600080fd5b50565b6000813590506105428161051c565b92915050565b60006020828403121561055e5761055d61050d565b5b600061056c84828501610533565b91505092915050565b600073ffffffffffffffffffffffffffffffffffffffff82169050919050565b60006105a082610575565b9050919050565b6105b081610595565b82525050565b60006020820190506105cb60008301846105a7565b92915050565b6105da81610595565b81146105e557600080fd5b50565b6000813590506105f7816105d1565b92915050565b6000602082840312156106135761061261050d565b5b6000610621848285016105e8565b91505092915050565b61063381610512565b82525050565b600060208201905061064e600083018461062a565b92915050565b60008115159050919050565b61066981610654565b82525050565b60006020820190506106846000830184610660565b92915050565b7f4e487b7100000000000000000000000000000000000000000000000000000000600052602160045260246000fd5b600481106106ca576106c961068a565b5b50565b60008190506106db826106b9565b919050565b60006106eb826106cd565b9050919050565b6106fb816106e0565b82525050565b600060208201905061071660008301846106f2565b92915050565b7f4e487b7100000000000000000000000000000000000000000000000000000000600052602260045260246000fd5b6000600282049050600182168061076357607f821691505b602082108114156107775761077661071c565b5b50919050565b7f496e76616c696420737461746500000000000000000000000000000000000000600082015250565b60006107b3600d8361045d565b91506107be8261077d565b602082019050919050565b600060208201905081810360008301526107e2816107a6565b9050919050565b7f4e487b7100000000000000000000000000000000000000000000000000000000600052601160045260246000fd5b600061082382610512565b915061082e83610512565b9250827fffffffffffffffffffffffffffffffffffffffffffffffffffffffffffffffff03821115610863576108626107e9565b5b82820190509291505056fea2646970667358221220eacdcc95d91a7d32a5cee61f048d9caf6d9a33943d4d3b9c1c38400e4a482c0f64736f6c63430008090033",
  "immutableReferences": {},
  "source": "pragma solidity 0.8.9;\nimport \"./CrowdFundingWithDeadline.sol\";\n\ncontract TestCrowdfundinfWithDeadline is CrowdFundingWithDeadline {\n\n    uint time;\n    constructor(\n        string memory contractName,\n        uint targetAmountEth,\n        uint durationInMin,\n        address beneficiaryAddress\n    ) \n    CrowdFundingWithDeadline(contractName, targetAmountEth, durationInMin, beneficiaryAddress){}\n    \n\n    function currentTime() internal override view returns(uint){\n        return time;\n    }\n\n    function setCurrentTime(uint newTime) public {\n        time = newTime;\n    }\n}",
  "sourcePath": "/home/vmuser/sandbox/CrowdFunding/contracts/TestCrowdFundingWithDeadline.sol",
  "compiler": {
    "name": "solc",
    "version": "0.8.9+commit.e5eed63a.Emscripten.clang"
  },
  "schemaVersion": "3.4.3",
  "updatedAt": "2021-10-17T15:15:49.683Z",
  "devdoc": {
    "kind": "dev",
    "methods": {},
    "version": 1
  },
  "userdoc": {
    "kind": "user",
    "methods": {},
    "version": 1
  }
}